:020000040000FA
:0600000024EF08F01200DD
:020006001200E6
:080008000000000000000050A0
:02001000465058
:06001800E6EF06F0120005
:02001E000200DE
:10002000080000008D0000000A00000064100000BD
:08003000600000002300000045
:08003800D9CFE6FFE1CFD9FFAB
:10004000020EE126DE6ADD6AE66AE66A3E0EE66ECA
:10005000430E06DA150EE66E0BDA150EFAD96EDAD5
:1000600079DA350E2DDA20DB480E12DA1DDB350E7B
:10007000DAD9480E33DB390ED3D94C0EDBD9F8DA96
:100080004C0EFCD967DA390E1BDAF2DA510EF6D9CA
:100090004DDA1DDAE2D9320EC6D94A0EF9D94A0E26
:1000A000EDD9020EE15C02E2E16AE552E16EE55251
:1000B000E7CFD9FF1200E66AE66AC80E3BDAE66AC5
:1000C000D7D92E0EC6D9340EABD9400E2BDB400E3D
:1000D000DFD94A0E27DB4A0EEBDA470E9DD9C5DA87
:1000E000470EF3DAC2DA390E9BD9450E1BDB450EFB
:1000F000CFD9470E17DB470ECBD9F1D93D0E90D99A
:10010000450E8AD920DB0FDA450E9FDA340E88D9E6
:100110004C0E08DB4C0EBCD9560E04DB560EC8DA6A
:10012000530E7AD9A2DA530ED0DA9FDA390EDAD921
:10013000650EB2D9510EACD9530EF4DA530EA8D9CC
:10014000CED93D0ECFD9FFDAEED9510E7EDA3C0E74
:1001500067D9480EE7DA480E9BD9510EE3DA3C0E18
:1001600062D9510E95D94C0E5BD94F0E55D9A4DAF0
:100170004F0E8ED94C0EB6D99FDA510E89D93E0E4C
:100180004FD94F0EB3D94F0E83D9510EAFD9510E5F
:100190007FD94F0EABD93E0E46D94F0E79D94E0EB0
:1001A0003FD94E0E39D97BDA3BD979DA8EDA4C0E4B
:1001B00033D94CD9C9D94C0E48EF02F0E66AE66A49
:1001C000F00EB8D92D0E45D97F0EE66E010EE66E03
:1001D00071EC05F0E552E552BAD98CD9410E0DD932
:1001E000410E4CD93E0E50DA3E0E19DA410E4AD974
:1001F000410E44D93E0E3ED93E0E6ADA40DA410E37
:1002000047DA410E93DA48DA9EDA04DA2D0E63DA21
:100210009ADA00DA93D96ED94D0EEFD84D0E2ED959
:100220004A0E32DAAEDA54DA8ADA4D0E31DA4D0E8F
:10023000F6D946DA4D0E1ED94D0E2EDA39D92D0ECD
:100240004ADA36D9310EFED8E2D82A0EE5D8430E66
:10025000D4D8430E13D9400E24D92A0E19D9400EF2
:10026000DED9430E0FD9430E09D9400E03D9400EF3
:10027000D6D9340ED1D8460EC0D8460EFFD8430E7C
:1002800010D9340E05D9430ECAD9460EFBD8460EF6
:10029000F5D8430EEFD8430EC2D92E0EBDD853DA8F
:1002A000B9D92E0E18DA4FDAB5D924D9E8D9410ECA
:1002B000EBD9410E3BDA0CDA4A0E9FD84A0EDED853
:1002C000450EE6D9450EABD94A0EDCD84A0ED6D833
:1002D000450ED0D8450EE0D9B1D92D0ED9D851DA76
:1002E0009ED9280E99D82BDA4C0EDBD8280ED0D800
:1002F0004C0E95D9E5D94C0EBDD84C0E90D9340E84
:100300008BD84F0E7AD84F0EB9D8490ECAD8340EB2
:10031000BFD8490E84D94F0EB5D84F0EAFD8490E6D
:10032000A9D8490EB9D98AD92D0EB2D84A0EFED90C
:1003300076D9260E71D83E0EEDD988D86BD9260E07
:10034000A7D83E0E3EEF02F0300EE66E91D8300E8A
:1003500080D8FDD8E66AE66ADC0EECD803DA3E0EF9
:10036000A3D860D9450E49D83E0E5DD83E0E75D94A
:10037000450E84D8E3D83E0E53D8400E4DD852D9FE
:100380009CD83E0E50D8400E68D9510E77D8DFD891
:10039000E9D9340E04DAC4D83E0E7AD8330EFFD928
:1003A000330E41D83E0E74D8320EACD8320E25D85A
:1003B000320E64D8360E21D8360E60D8390E1DD8CC
:1003C000390E5CD83E0E19D83E0E58D8420E15D8BC
:1003D000420E54D854D94A0E10D84A0EC8D9AFD9B3
:1003E000550E28D8550E4AD8560E24D8560E46D843
:1003F000320E19D83D0E48EF02F08CD9650E4CEF45
:1004000002F0E66E86EC05F0E552E5521200260E8B
:10041000E66E090EE66E7AD0E66E010EE66E76D0D6
:10042000E66EE66A73D0E66EE66A86EC05F0E552A3
:10043000E55212006FD9A3EF03F0E66EFDEC07F072
:10044000E5521200E66E020EE66E65D0770E4CEFB6
:1004500002F0E66E010EE66E5ED0680E4CEF02F022
:10046000E66E8CEC05F0E552E552E552E5521200DD
:10047000E66A51D04FD9080E69D988D1E66E020ECE
:1004800001EF02F047D9110E61D9080E1DEF02F0FD
:10049000E66E010E01EF02F0E66E23EC06F0E55287
:1004A0001200ABDF0AEF03F0BBDF3E0E0CEF02F0F1
:1004B000110E4CD9110E4AD969D1510EFDEF01F040
:1004C000AFDF510E1AEF02F0560EFDEF01F0A4DF80
:1004D0004A0E1AEF02F09BDF2D0E0CEF02F0390EE0
:1004E00013EF02F09DDF510E0CEF02F095DF140EBA
:1004F0001DEF02F08CDF290E0CEF02F088DF320EC8
:100500000CEF02F08DDF3D0E0CEF02F080EC05F0F9
:10051000E552E55212007BEC05F0E552E55212007F
:10052000340E13EF02F03D0E13EF02F0320E78DFBF
:100530004A0E1200E66E420E30EF02F0490E22EF34
:1005400002F0400E10EF02F0400E13EF02F02E0EFC
:1005500022EF02F0EBDFFED8390E5EDF560E6ADFC7
:10056000390E0BD9390E58DFEED8320E5CDF390E5A
:100570008FDF340E55DF4A0EEDD83B0E4DDF560EA1
:10058000C9D86BDFCDDF3B0EF8D8350E49DF580EEA
:1005900051DF3C0EC7D8FED8590E70DF3C0E78DF15
:1005A0003C0E3ADF580E29DFF5D8350E3CDF3C0E05
:1005B0006FDF590E63DF340E33DF580E1EDF580E27
:1005C0005DDF540E1ADF540E59DF3B0E25DF510E4E
:1005D000A1D843DFA5DF3B0E6EEF03F0390E64DFD9
:1005E00073DF560E4BDF69DFAED8510E47DF6CDF8D
:1005F000560E44DFA4D8530E00DF530E3FDF64DFF6
:100600006EDF3E0E45DF3B0ECAD83B0E0CDF3E0EC2
:10061000BDEF03F0260EE66E090E01EF02F02EDFAD
:1006200007EF02F08CD84C0EE8DE8DD84C0E26DF9A
:1006300086D84C0EE2DE4C0EB7EF03F04D0E22DFF3
:100640004D0E1CDF4A0E3AEF02F022DF3D0EE8DECF
:100650007AD869DF480E29EF02F01ADF3D0E52DF2B
:10066000F5DE61DF3D0E48EF02F06DD8A4EF02F039
:10067000490ED2DEF2DE33DF490E48EF02F0450EBE
:10068000BCDE450E3EEF02F00CDF290E48EF02F013
:1006900008DF320E48EF02F0F1DE6BEF02F053D8C4
:1006A0004E0EC1DE4E0E1200480EB6DEA3EF03F072
:1006B000EFDE36DFA1EF02F046D84C0E13EF02F06A
:1006C000510EE0DE510E3EEF02F0E2DEA1EF02F04D
:1006D000D5DE7EEF02F0DCDE07EF02F0D9DE510E50
:1006E000CDDE3A0EEDDE510EC9DE460EF0DE460ED0
:1006F000CFDE4A0EC3DE460E8FDE4D0E7EDE4D0E81
:10070000BDDE4F0E7ADE3A0E8EDE460EC1DE4F0E95
:100710003EEF02F0E66E020EE66E80EC05F0E5526A
:10072000E552120079DE650E4CEF02F078DF450EDF
:10073000A9DE450EA3DE410E9DDE410E1200BDDE98
:10074000510E3EEF02F0710E4CEF02F076DE62DFEA
:1007500007EF02F052DE4A0E91DE4D0E4EDE4D0ED8
:100760003EEF02F03BDFEADE39DFA7EF02F086DE84
:100770004E0E43DE4E0E3EEF02F08ADE560E3EEF88
:1007800002F04A0E4CDF5ADF4A0E1200110E55DEFF
:100790000AEF03F0580E72DE590EFDEF01F084DE11
:0407A00026EF02F04E
:0C07A400016A11EC05F029EC05F001B62B
:1007B000B9EF04F001A205D001BAB9EF04F0C0EF1F
:1007C00004F001BACCEF04F001A005D001B8B9EFF4
:1007D00004F0CCEF04F001B8C0EF04F0056A7F0E1E
:1007E0000A24046EE86A05220F50045EE86A055A7E
:1007F0001A0E106E0A6A126A136A026A036A0C50B1
:10080000075E0D50085A0E50095A000E0A5A09E7A1
:100810000C5007260D5008220E500922000E0A2205
:1008200001D0128AD8900736083609360A36D89091
:100830001236133602360336102EE1D7095008104F
:100840000710D8A4128AD5EF04F0016A11EC05F064
:1008500029EC05F001B6B9EF04F001A205D001B80A
:10086000B9EF04F0C0EF04F001AA05D001B0B9EF70
:1008700004F0C0EF04F001B002D001A802D0CCEF28
:1008800004F0056A0F500A24046EE86A05227E0E01
:10089000045EE86A055A126A136A026A036A0E5015
:1008A0000902F4CF03F0F3CF02F00D500902F35028
:1008B0001326F4500222000E03220E500802F350B9
:1008C0001326F4500222000E03220C500902F350AA
:1008D0001226F4501322000E022203220D500802A9
:1008E000F3501226F4501322000E022203220E505F
:1008F0000702F3501226F4501322000E02220322A4
:100900000C500802F4501226000E13220222032279
:100910000D500702F4501226000E13220222032269
:10092000D5EF04F0016A11EC05F001B69CEF04F07C
:1009300001A20AD001B403D07F0E096E19D0800E37
:10094000096E16D0096A14D001B0FCD7870E0A6070
:10095000F1D77E0E0A64F6D7860E0A5C04E0D890C2
:1009600009320A2AF9D701A403D0096C09AEEAD7E3
:1009700012007F0E0A6EFF0E096E086E076E1200DF
:100980007F0E01BEFF0E0A6E02D07F0E0A6E800E31
:10099000096E086A076AF3D701AE04D0800E0A6EAA
:1009A000096AF7D70A6A096AF4D7035002101310CC
:1009B0001210F8E005BEF0D703BE0CD004500510AD
:1009C000EBE0D89012361336023603360406D8A070
:1009D0000506F2D70550D4E10428D2E012AE11D0BA
:1009E0007F0E121402E113A00CD0132AE86A02222F
:1009F000032207E3D880033202321332042A042888
:100A0000BFE00450C9E013C007F002C008F003348F
:100A1000096E04300A6E09320A9E01BE0A8EBFEFCB
:100A200004F009360A3602E30184017E06E1018002
:100A30000A6A096A086A076A12000A2803E0D8806D
:100A400009321200D890093202E1018212000186B7
:100A500012000E360F3602E3018C017E06E101889A
:100A60000F6A0E6A0D6A0C6A12000F2803E0D88024
:0E0A70000E321200D8900E32EAE1018A120016
:020A7E00948E54
:100A8000948CAC9CAC98AC84AB8EAB9CAB98B89877
:100A9000B89AB886B892B890B06A1F0EAF6E9D989B
:100AA000AC8A120017D9FE0EDB50AD6EACA2FED799
:100AB000FD0EDB50AD6EACA2FED7FE0EDB50F00B90
:100AC000B00805E3FC0EDB50AD6EACA2FED722D120
:100AD00001D9FD0EDBCFE6FFE66AFE0EDB50B00962
:100AE000F3D0F8D8FD0EDBCFE6FF070EE66EFE0E64
:100AF000DB50B009E9D0EED8E66A06D9C009E4D0E7
:100B0000E9D860C0E6FF00D99009DED0E3D861C023
:100B1000E6FFFAD88009D8D0DDD800017B6B240E1F
:100B20007C6F740E7D6F490E7E6F076A086A700EC7
:100B3000096E420E0A6EFB0EDBCF0CF0FC0EDBCF13
:100B40000DF0FD0EDBCF0EF0FE0EDBCF0FF0D2EC82
:100B500003F007C018F008C019F009C01AF00AC065
:100B60001BF07BC00CF07CC00DF07DC00EF07EC091
:100B70000FF025EC04F007C014F008C015F009C010
:100B800016F00AC017F00C6A400E0D6E1C0E0E6EA9
:100B9000460E0F6ED2EC03F007C07FF008C080F065
:100BA00009C081F00AC082F0146A156A800E166EC0
:100BB000400E176E07C00CF008C00DF009C00EF013
:100BC0000AC00FF098D807C067F008C068F009C0E5
:100BD00069F00AC06AF0146A156A166A400E176E48
:100BE0007FC00CF080C00DF081C00EF082C00FF00D
:100BF00082D807C06BF008C06CF009C06DF00AC065
:100C00006EF07FC06FF080C070F081C071F082C064
:100C100072F00C6A0D6A0E6A62D807C073F008C0E1
:100C200074F009C075F00AC076F00C6A0D6A800E87
:100C30000E6E55D807C077F008C078F009C079F07B
:100C40000AC07AF067D046D8FE0EDB50730A2CE05B
:100C5000160A21E0140A16E0190A0BE01F0A33E114
:100C600067C007F068C008F069C009F06AC00AF000
:100C700023D06BC007F06CC008F06DC009F06EC0E7
:100C80000AF01AD06FC007F070C008F071C009F008
:100C900072C00AF011D073C007F074C008F075C0BC
:100CA00009F076C00AF008D077C007F078C008F0E5
:100CB00079C009F07AC00AF092EC04F00950E66EAF
:100CC000FDEC07F0E55226D0E66EECDEE552E5528B
:100CD000E55220D0D9CFE6FFE1CFD9FF1200400E78
:100CE0000F6E7FC007F080C008F081C009F082C09D
:100CF0000AF0D2EF03F014C007F015C008F016C0D8
:100D000009F00A6E25EF04F0FD0EDBCFE6FFFE0EC4
:0C0D1000DB501200E552E7CFD9FF1200C3
:040D1C000F0EC16E87
:100D2000F188D08EF092F088F09EF28CF28E959041
:100D30009592959495968C808C928C948C969384B5
:100D4000938693883FEC05F093C0E6FFE66AFAD8F5
:100D5000010EE66EF7D8020EE66E68EC05F0E5527D
:100D6000E55294C0E6FFE66AF4D895C0E6FF010EAE
:100D7000E66EEFD896C0E6FF020EE66EEAD881B8BE
:100D8000FED70A0EE66EFDEC07F0E552030E0001F9
:100D9000911901E1925117E0020E911901E192516E
:100DA0000FE0010E911901E1925107E09151D9E153
:100DB0009251D7E15BEC00F0D4D71CEC00F0D1D716
:100DC000DEEC00F0CED7A4EC01F0CBD7D8CFE4FF17
:100DD000E0CFE4FFE46EDACFE4FFE2CFDAFFE9CF61
:100DE000E4FFEACFE4FFF6CFE4FFF7CFE4FFF5CF6F
:100DF000E4FFF3CFE4FFF4CFE4FFFACFE4FF00EE2B
:100E000000F0140EE80403E3EECFE4FFFBD700EE9E
:100E100014F0080EE80403E3EECFE4FFFBD7E6523C
:100E2000F0A267D0050EE66EFDEC07F0E55200017A
:100E30008D6B8E6B8F6B906B8D51E8B08C80E8A0C2
:100E40008C908E51E8B08C82E8A08C928F51E8B0E3
:100E50008C84E8A08C949051E8B08C86E8A08C96A5
:100E60008150040B01E0010E1C6E8150080B01E063
:100E7000010E1C5C04E1912B000E92230ED08150D8
:100E8000040B01E0010E1C6E8150080B01E0010E05
:100E90001C5C0BE09107000E925B8D0E9125E96EB4
:100EA000000E9221EA6E010EEF6E923507E291512B
:100EB0000408000E925502E2916B05D0800E921547
:100EC00003E0030E916F926B8D51E8B08C80E8A027
:100ED0008C908E51E8B08C82E8A08C928F51E8B053
:100EE0008C84E8A08C949051E8B08C86E8A08C9615
:100EF000F092E55200EE1BF0080EE80403E3E5CFA4
:100F0000EDFFFBD700EE13F0140EE80403E3E5CF8A
:100F1000EDFFFBD7E5CFFAFFE5CFF4FFE5CFF3FF19
:100F2000E5CFF5FFE5CFF7FFE5CFF6FFE5CFEAFF29
:100F3000E5CFE9FFE5CFDAFFE550E5CFE0FFE5CF0C
:100F4000D8FF100068EC05F0E552E55293C0E6FFCB
:0C0F5000120071EC05F0E552E5521200B1
:040F5C001E0EF66E01
:100F6000000EF76E000EF86E00010900F550886F54
:100F70000900F550896F03E1886701D03DD0090071
:100F8000F550836F0900F550846F0900F550856FA7
:100F900009000900F550E96E0900F550EA6E0900F4
:100FA00009000900F550866F0900F550876F0900A8
:100FB0000900F6CF8AF0F7CF8BF0F8CF8CF083C022
:100FC000F6FF84C0F7FF85C0F8FF0001865302E1F9
:100FD000875307E00900F550EE6E8607F8E28707B1
:100FE000F9D78AC0F6FF8BC0F7FF8CC0F8FF00016D
:0A0FF0008807000E895BBFD71200CE
:060FFA00FF0EE3501E6E25
:10100000EF0E01D0F30EE76EE72E04EF08F00C0EA2
:101010001D6EE76AE72E0AEF08F01D2E09EF08F0B3
:081020001E2E02EF08F0120081
:08102800000EF36E00EE00F073
:10103000080E01D81200EA6002D0EE6AFCD7F35025
:08104000E9601200EE6AFCD722
:0810480013EE00F023EE00F0AE
:10105000F86A019CAEEC07F003EC00F08EEC06F0B1
:04106000FBD71200A8
:0C1064003C509080B0000700000000002D
:101070000000000000000000000000000000000070
:071080000000000000000069
:020000040030CA
:01000100807E
:010003001EDE
:00000001FF
