:020000040000fa
:080000000002040000000000f2
:020000040000fa
:10040000cf9120000eff20000e01880000000000a8
:1004100000012000200288000c000700006420007a
:100420000100200011000700000020000000e00093
:100430000200320000000200000000004605020039
:10044000000000000040da000000fe004440a90067
:10045000000520000000e000030032000000200042
:10046000a00188004440a800000006009101880017
:10047000800078000000eb0015003700e2804000ab
:1004800032a0b4009101ba00e280400032a0b40072
:100490009102ba00e280400032a0b4000002eb00fa
:1004a000472bde00f507b200602ce10004003a00a3
:1004b0000059eb008301e900fdff3e000400370016
:1004c0006128e100010032000082eb000400070017
:1004d0001101ba000200e000e8ff3a000000060047
:1004e0003159ba008301e9000c0032002159ba00e9
:1004f0008301e900080032000400e00003003a0034
:10050000e280400032a0b400f5ff370011d9ba00f4
:100510008301e900faff3a008100e800e180400031
:1005200032a0b400000006000040da000000fe0027
:10053000839f68000100e00002003d0060001000a1
:10054000e08018000300e00002003d00600111009f
:10055000e0811900050007004f00e00002003b00a9
:1005600060001000e0801800000006006022b80063
:10057000060220000000d0008180d2000482d20058
:100580008582d2000000a0000202520083825a003d
:10059000030031000202420083824a000000a100f1
:1005a0000603e900f3ff3a000000060000027800ad
:1005b00002003700315a78000201e900e00f5100d3
:1005c000fcff3a0000000600000278008042eb00c9
:1005d000b4cf1200fdff3a000080ea0000004200a4
:0405e0000000060011
:020000040000fa
:0200000401f009
:04000c007aff000077
:020000040000fa
:0200000401f009
:04001000feff0000ef
:020000040000fa
:0200000401f009
:040014007fff00006a
:020000040000fa
:100008009402000094020000940200009402000090
:100018009402000094020000940200009402000080
:100028009402000094020000940200009402000070
:100038009402000094020000940200009402000060
:100048009402000094020000940200009402000050
:10005800e2050000940200009402000094020000ef
:100068009402000094020000940200009402000030
:100078009402000094020000940200009402000020
:100088009402000094020000940200009402000010
:100098009402000094020000940200009402000000
:1000a80094020000940200009402000094020000f0
:1000b80094020000940200009402000094020000e0
:1000c80094020000940200009402000094020000d0
:1000d80094020000940200009402000094020000c0
:1000e80094020000940200009402000094020000b0
:1000f80094020000940200009402000094020000a0
:10010800940200009402000094020000940200008f
:10011800940200009402000094020000940200007f
:10012800940200009402000094020000940200006f
:10013800940200009402000094020000940200005f
:10014800940200009402000094020000940200004f
:10015800940200009402000094020000940200003f
:10016800940200009402000094020000940200002f
:10017800940200009402000094020000940200001f
:10018800940200009402000094020000940200000f
:1001980094020000940200009402000094020000ff
:1001a80094020000940200009402000094020000ef
:1001b80094020000940200009402000094020000df
:1001c80094020000940200009402000094020000cf
:1001d80094020000940200009402000094020000bf
:1001e80094020000940200009402000094020000af
:0801f8009402000094020000d3
:020000040000fa
:10020800940200009402000094020000940200008e
:10021800940200009402000094020000940200007e
:10022800940200009402000094020000940200006e
:10023800940200009402000094020000940200005e
:10024800940200009402000094020000940200004e
:10025800e2050000940200009402000094020000ed
:10026800940200009402000094020000940200002e
:10027800940200009402000094020000940200001e
:10028800940200009402000094020000940200000e
:1002980094020000940200009402000094020000fe
:1002a80094020000940200009402000094020000ee
:1002b80094020000940200009402000094020000de
:1002c80094020000940200009402000094020000ce
:1002d80094020000940200009402000094020000be
:1002e80094020000940200009402000094020000ae
:1002f800940200009402000094020000940200009e
:10030800940200009402000094020000940200008d
:10031800940200009402000094020000940200007d
:10032800940200009402000094020000940200006d
:10033800940200009402000094020000940200005d
:10034800940200009402000094020000940200004d
:10035800940200009402000094020000940200003d
:10036800940200009402000094020000940200002d
:10037800940200009402000094020000940200001d
:10038800940200009402000094020000940200000d
:1003980094020000940200009402000094020000fd
:1003a80094020000940200009402000094020000ed
:1003b80094020000940200009402000094020000dd
:1003c80094020000940200009402000094020000cd
:1003d80094020000940200009402000094020000bd
:1003e80094020000940200009402000094020000ad
:0803f8009402000094020000d1
:020000040000fa
:1005e400776900006c6c00002074000068650000ee
:1005f4002063000069720000636c00006520000045
:1006040062650000207500006e620000726f0000d9
:100614006b6500006e20000062790000206100001c
:100624006e64000020620000793f00000a000000b0
:1006340069730000206100002067000072650000fb
:100644006174000065720000206800006f6d000096
:100654006520000061770000616900007469000092
:100664006e670000206900006e20000074680000be
:1006740065200000736b0000793f00000a00000051
:020000040000fa
:100684000200fa00000f78001e0278004622dd0006
:10069400050020000401be0000202100a107200065
:1006a400a2ff07000002be0004027800c4488800cc
:1006b40001e3a90001a3a8000183a9000143a80044
:1006c4000103a90000e3a90000c3a80000a3a90036
:1006d4000083a9000043a9000023a8000023a80068
:1006e4000203a9000223a9000ae3a8000aa3a800a0
:1006f4005518800004fe2f0004826200c400b30079
:100704005418880005e1a90005a1a80004c1a900a6
:10071400240880000440a1000450a000240888009c
:100724000421a9000002eb0004088800c4488000ea
:100734001408880005e1a80001e3a8000002eb000a
:10074400040078000080fa00000006000000fa00af
:1007540021e2a9002342a90021a2a9002182a90023
:100764002162a800041180000480a1000490a1006b
:100774000411880020e2a90020c2a90020a2a90037
:100784002082a9002062a900041180000410a100a5
:100794000420a100041188002002a90023e2a9007a
:1007a40023a2a90023c2a9002362a9009401200066
:1007b400441188008580a9009580a800f536800042
:1007c400f40f2c0084826200043020000482720042
:1007d400f436880021e2a8002342a8000002eb00be
:1007e400040078000080fa00000006000200fa000d
:1007f400000f78001e0278001510200005029900f1
:100804001e0278008002eb00150299001e02780097
:100814008002eb00250299001e027800e00f5200ce
:1008240002003a000082eb00010037000002eb00f6
:10083400040078000080fa00000006000800fa00b6
:100844001007980021079800320798001e009000b6
:100854006f00070000027800e00f520007003a0022
:100864001e0290008002eb00250299001e029000f7
:10087400a40291001e029000150299001e0090002f
:100884007600070000027800be029000850f520037
:1008940002003d000082eb001e003700be02900003
:1008a4001e0390001e0290002402910004024300e3
:1008b40005017800ae009000040078003aff0700bc
:1008c40000027800040f78001e027800e00f520046
:1008d40002003a00e4ff2f000e0037001e029000d1
:1008e400a40291003e029000848242001e02900005
:1008f40004029100110009008402d80080027800eb
:1009040001027800840278001e02900025029900fa
:100914000002eb00040078000080fa0000000600ea
:100924000800fa0010079800210798003207980081
:100934001e0090003600070000027800be029000fe
:10094400850f520002003d000082eb002d003700ad
:10095400be0290001e0390001e029000140291003b
:100964000402430005017800840078002e00900002
:100974000dff070000027800040f78001e027800c3
:10098400e00f520002003a00e4ff2f001d00370080
:100994001e029000940291003e0290008482420064
:1009a4001e02900004029100809fbe001100090005
:1009b4008402d80080027800010278004f00be0053
:1009c400840278001e029000150299001e02900015
:1009d400a40291001e02900014029100848f520020
:1009e40007003a001e0290008002eb0025029900e5
:1009f4001e029000a40291001e02900015029900ac
:100a04000002eb00040078000080fa0000000600f9
:100a14000200fa00000f78001e0278002402910000
:100a24008402e8001e02780004029100110009000b
:100a34008402d800800278000102780084027800e1
:100a44001e02780014029100048252000402e9009c
:100a5400040078000080fa00000006000200fa009a
:100a6400000f78001e027800840291001e027800b4
:100a740024029100048252000402e9000400780078
:100a84000080fa00000006000800fa002007980021
:100a940031079800143a800004c0a10004d0a000db
:100aa40004e0a100143a880042e7a80042c7a80065
:100ab40045e7a900243a800004c0a10004d0a100a5
:100ac40004e0a100243a88004567a8008448800017
:100ad4000400780045ff0700242f2800040f780045
:100ae400a4312800140798001e007800b5fe070002
:100af40000027800840278008448800005017800b0
:100b04009e007800040078004cff07000fff0700e8
:100b14001900070014002000644888001e0090009b
:100b2400a8fe070000027800840278008448800050
:100b3400050178009e009000040078003fff070044
:100b44000002eb00644888000b0007000002eb0081
:100b5400b448880003003700b44880000402e80069
:100b6400b4488800b5488000f4702200848f520095
:100b7400f9ff3400e7ff37000000fa0074488000f2
:100b8400e00f52000c003a00140020007448880062
:100b94009548800084488000120020008500780079
:100ba400040078005eff0700944880001442780037
:100bb4000402fb00241188000080fa0000000600f3
:100bc4003600f800809fbe00829fbe00849fbe0056
:100bd400869fbe003400f80000002000a0018800b9
:100be4000000fa008580a90064488000e00f5200ec
:100bf40005003200e10f520017003a000002eb003a
:100c040074488800150037009548800084488000a7
:100c140012002000850078000400780040ff0700df
:100c240000027800a4488800a4488000e00f520025
:100c340003003d000002eb00744888000700370001
:100c440094488000144278000402fb0024118800b8
:100c54000000000001003700000000000080fa00de
:100c64003400f9004f03be004f02be004f01be0026
:0c0c74004f00be003600f90000400600f2
:020000040000fa
:100c8000000800000c010000000000000c0900003a
:100c90000c0000000200000000000000000408003a
:100ca0000a0900000000000018090000040000000c
:080cb00000000000000000003c
:00000001FF
