:020000040000fa
:080000000002040000000000f2
:020000040000fa
:100400004f9120000eff20000e0188000000000028
:1004100000012000200288000c000700c05a2000c4
:100420000100200011000700000020000000e00093
:10043000020032000000020000000000c8040200b8
:10044000000000000040da000000fe004440a90067
:10045000400020000000e000030032000000200007
:10046000a00188004440a800000006009101880017
:10047000800078000000eb0015003700e2804000ab
:1004800032a0b4009101ba00e280400032a0b40072
:100490009102ba00e280400032a0b4000002eb00fa
:1004a000472bde00f507b200602ce10004003a00a3
:1004b0000059eb008301e900fdff3e000400370016
:1004c0006128e100010032000082eb000400070017
:1004d0001101ba000200e000e8ff3a000000060047
:1004e0003159ba008301e9000c0032002159ba00e9
:1004f0008301e900080032000400e00003003a0034
:10050000e280400032a0b400f5ff370011d9ba00f4
:100510008301e900faff3a008100e800e180400031
:1005200032a0b400000006000040da000000fe0027
:10053000839f68000100e00002003d0060001000a1
:10054000e08018000300e00002003d00600111009f
:10055000e0811900050007004f00e00002003b00a9
:1005600060001000e0801800000006006022b80063
:10057000060220000000d0008180d2000482d20058
:100580008582d2000000a0000202520083825a003d
:10059000030031000202420083824a000000a100f1
:0c05a0000603e900f3ff3a00000006002b
:020000040000fa
:0200000401f009
:04000c007aff000077
:020000040000fa
:0200000401f009
:04001000feff0000ef
:020000040000fa
:0200000401f009
:040014007fff00006a
:020000040000fa
:100008009402000094020000940200009402000090
:100018009402000094020000940200009402000080
:100028009402000094020000940200009402000070
:100038009402000094020000940200009402000060
:100048009402000094020000940200009402000050
:1000580028050000940200009402000094020000a9
:100068009402000094020000940200009402000030
:100078009402000094020000940200009402000020
:100088009402000094020000940200009402000010
:100098009402000094020000940200009402000000
:1000a80094020000940200009402000094020000f0
:1000b80094020000940200009402000094020000e0
:1000c80094020000940200009402000094020000d0
:1000d80094020000940200009402000094020000c0
:1000e80094020000940200009402000094020000b0
:1000f80094020000940200009402000094020000a0
:10010800940200009402000094020000940200008f
:10011800940200009402000094020000940200007f
:10012800940200009402000094020000940200006f
:10013800940200009402000094020000940200005f
:10014800940200009402000094020000940200004f
:10015800940200009402000094020000940200003f
:10016800940200009402000094020000940200002f
:10017800940200009402000094020000940200001f
:10018800940200009402000094020000940200000f
:1001980094020000940200009402000094020000ff
:1001a80094020000940200009402000094020000ef
:1001b80094020000940200009402000094020000df
:1001c80094020000940200009402000094020000cf
:1001d80094020000940200009402000094020000bf
:1001e80094020000940200009402000094020000af
:0801f8009402000094020000d3
:020000040000fa
:10020800940200009402000094020000940200008e
:10021800940200009402000094020000940200007e
:10022800940200009402000094020000940200006e
:10023800940200009402000094020000940200005e
:10024800940200009402000094020000940200004e
:1002580028050000940200009402000094020000a7
:10026800940200009402000094020000940200002e
:10027800940200009402000094020000940200001e
:10028800940200009402000094020000940200000e
:1002980094020000940200009402000094020000fe
:1002a80094020000940200009402000094020000ee
:1002b80094020000940200009402000094020000de
:1002c80094020000940200009402000094020000ce
:1002d80094020000940200009402000094020000be
:1002e80094020000940200009402000094020000ae
:1002f800940200009402000094020000940200009e
:10030800940200009402000094020000940200008d
:10031800940200009402000094020000940200007d
:10032800940200009402000094020000940200006d
:10033800940200009402000094020000940200005d
:10034800940200009402000094020000940200004d
:10035800940200009402000094020000940200003d
:10036800940200009402000094020000940200002d
:10037800940200009402000094020000940200001d
:10038800940200009402000094020000940200000d
:1003980094020000940200009402000094020000fd
:1003a80094020000940200009402000094020000ed
:1003b80094020000940200009402000094020000dd
:1003c80094020000940200009402000094020000cd
:1003d80094020000940200009402000094020000bd
:1003e80094020000940200009402000094020000ad
:0803f8009402000094020000d1
:020000040000fa
:0805ac00686900000000000076
:020000040000fa
:1005b4000200fa00000f78001e0278004622dd00d7
:1005c400050020000401be0000202100a107200036
:1005d400d6ff07000002be000402780084488800a9
:1005e40001e3a90001a3a8000183a9000143a80015
:1005f4000103a90000e3a90000c3a80000a3a90007
:100604000083a9000043a9000023a8000023a80038
:100614000203a9000223a9000ae3a8000aa3a80070
:100624005518800004fe2f0004826200c400b30049
:100634005418880005e1a90005a1a80004c1a90077
:10064400240880000440a1000450a000240888006d
:100654000421a9000002eb000408880084488000fb
:100664001408880005e1a80001e3a8000002eb00db
:10067400040078000080fa00000006000000fa0080
:1006840021e2a9002342a90021a2a9002182a900f4
:100694002162a800041180000480a1000490a1003c
:1006a4000411880020e2a90020c2a90020a2a90008
:1006b4002082a9002062a900041180000410a10076
:1006c4000420a100041188002002a90023e2a9004b
:1006d40023a2a90023c2a9002362a9009401200037
:1006e400441188008580a9009580a800f536800013
:1006f400f40f2c0084826200043020000482720013
:10070400f436880021e2a8002342a8000002eb008e
:10071400040078000080fa00000006000e00fa00d1
:10072400500798006107980014002000040f780017
:100734006e02900094427800254798000600370026
:100744001e027800ee029000048242009442780077
:10075400254798001e0fe8002e429000e04f5200fb
:10076400f7ff3a000002eb00240798009e0278008d
:100774005e02900034029100848f520004003e0017
:100784005e02900054029100e10f520002003a0010
:100794000082eb00460037009e0278005e02900063
:1007a40034029100848f520040003e006e0290009b
:1007b40094427800654798005e029000a40291007c
:1007c400450798002b0037005e0290002402910038
:1007d400ee429000054a78005e02900024029100e7
:1007e4008402e8005e029000250299005e029000f7
:1007f400340291008402e9005e02900035029900ff
:100804005e029000a40291005e0290000402910036
:100814000410b000848f5200050036005e02900080
:1008240004029100840278005e029000250299007f
:100834005e029000a40291005e02900014029100f6
:10084400848f520003003a005e02900015002000dd
:10085400550299002e0290000402e8002407980033
:100864002e029000ee02900004824200944278002e
:10087400654798006e429000e04f5200d2ff3a0064
:100884005e02900044029100e10f520007003a001a
:100894005e0290008002eb00450299004e02900037
:1008a400144278000402fb00241188000002eb00cb
:1008b400040078000080fa00000006002e00fa0010
:1008c40050179800611798000002eb001407980075
:1008d4006902470005022000050f42009e027800cd
:1008e4000042eb00844a78005e129000ee12900001
:1008f40024079800350798005e129000ee129000cd
:10090400a2002000030020000400be0016ff070020
:100914000002be0054179800651798002e0290003c
:10092400044378005e129000044278006a22b90001
:10093400040278000442780004425300044f9800f3
:100944001e0fe9000e4a90000443b0009e02780096
:10095400844a78005e129000ee129000e00f52007c
:10096400e08f5a00e0ff3a001e029000e00f5200b0
:1009740002003d000082eb00010037000002eb00a2
:10098400040078000080fa00000006000a00fa0063
:1009940030079800410798004480200024488800cc
:1009a4002448800034488800244880004448880053
:1009b4000410200054488800140020006448880073
:1009c4000002eb007448880044802000140798005b
:1009d400143a800004c0a10004d0a00004e0a100e7
:1009e400143a880042e7a80042c7a80045e7a900d6
:1009f400243a800004c0a10004d0a10004e0a100b6
:100a0400243a88004567a8000002eb00040f780030
:100a1400642d28002407980018ff0700ae009000fa
:100a24001e0090003dff07000002eb00040f780059
:100a3400010037001e0fe800743e20009e0278007b
:100a4400848f5200fbff3400f4ff3700849fbe0004
:100a5400861f78003400f80004002000a4018800f8
:100a64000000fa0064488000e10f520002003a00de
:100a74008580a9003200370064488000e00f5200ee
:100a84002f003a0034488000144278000402fb002e
:100a940024118800344880000402e80034488800a7
:100aa40035488000244880000410b000848f520030
:100ab40002003900244880003448880074488000cb
:100ac400e10f520002003a000002eb007448880073
:100ad4004548800034488000848f52000a00360064
:100ae400444880000510200084825200244880007d
:100af4000403780034488000040253000482420056
:100b0400544888000d003700454880003448800070
:100b1400848f52000700310034488000840278003a
:100b240044488000048252000402e80054488800cb
:100b34000200370014002000544888008580a90072
:100b44000080fa003400f9004f0378004f02be0021
:040b54000040060057
:020000040000fa
:100b58001009000004000000000000000008000068
:0c0b680010010000000000000000000070
:00000001FF
