:020000040000fa
:080000000002040000000000f2
:020000040000fa
:100400004f9120000eff20000e0188000000000028
:1004100000012000200288000c0007008058200006
:100420000100200011000700000020000000e00093
:10043000020032000000020000000000c8040200b8
:10044000000000000040da000000fe004440a90067
:10045000400320000000e000030032000000200004
:10046000a00188004440a800000006009101880017
:10047000800078000000eb0015003700e2804000ab
:1004800032a0b4009101ba00e280400032a0b40072
:100490009102ba00e280400032a0b4000002eb00fa
:1004a000472bde00f507b200602ce10004003a00a3
:1004b0000059eb008301e900fdff3e000400370016
:1004c0006128e100010032000082eb000400070017
:1004d0001101ba000200e000e8ff3a000000060047
:1004e0003159ba008301e9000c0032002159ba00e9
:1004f0008301e900080032000400e00003003a0034
:10050000e280400032a0b400f5ff370011d9ba00f4
:100510008301e900faff3a008100e800e180400031
:1005200032a0b400000006000040da000000fe0027
:10053000839f68000100e00002003d0060001000a1
:10054000e08018000300e00002003d00600111009f
:10055000e0811900050007004f00e00002003b00a9
:1005600060001000e0801800000006006022b80063
:10057000060220000000d0008180d2000482d20058
:100580008582d2000000a0000202520083825a003d
:10059000030031000202420083824a000000a100f1
:0c05a0000603e900f3ff3a00000006002b
:020000040000fa
:0200000401f009
:04000c007aff000077
:020000040000fa
:0200000401f009
:04001000feff0000ef
:020000040000fa
:0200000401f009
:040014007fff00006a
:020000040000fa
:100008009402000094020000940200009402000090
:100018009402000094020000940200009402000080
:100028009402000094020000940200009402000070
:100038009402000094020000940200009402000060
:100048009402000094020000940200009402000050
:1000580008050000940200009402000094020000c9
:100068009402000094020000940200009402000030
:100078009402000094020000940200009402000020
:100088009402000094020000940200009402000010
:100098009402000094020000940200009402000000
:1000a80094020000940200009402000094020000f0
:1000b80094020000940200009402000094020000e0
:1000c80094020000940200009402000094020000d0
:1000d80094020000940200009402000094020000c0
:1000e80094020000940200009402000094020000b0
:1000f80094020000940200009402000094020000a0
:10010800940200009402000094020000940200008f
:10011800940200009402000094020000940200007f
:10012800940200009402000094020000940200006f
:10013800940200009402000094020000940200005f
:10014800940200009402000094020000940200004f
:10015800940200009402000094020000940200003f
:10016800940200009402000094020000940200002f
:10017800940200009402000094020000940200001f
:10018800940200009402000094020000940200000f
:1001980094020000940200009402000094020000ff
:1001a80094020000940200009402000094020000ef
:1001b80094020000940200009402000094020000df
:1001c80094020000940200009402000094020000cf
:1001d80094020000940200009402000094020000bf
:1001e80094020000940200009402000094020000af
:0801f8009402000094020000d3
:020000040000fa
:10020800940200009402000094020000940200008e
:10021800940200009402000094020000940200007e
:10022800940200009402000094020000940200006e
:10023800940200009402000094020000940200005e
:10024800940200009402000094020000940200004e
:1002580008050000940200009402000094020000c7
:10026800940200009402000094020000940200002e
:10027800940200009402000094020000940200001e
:10028800940200009402000094020000940200000e
:1002980094020000940200009402000094020000fe
:1002a80094020000940200009402000094020000ee
:1002b80094020000940200009402000094020000de
:1002c80094020000940200009402000094020000ce
:1002d80094020000940200009402000094020000be
:1002e80094020000940200009402000094020000ae
:1002f800940200009402000094020000940200009e
:10030800940200009402000094020000940200008d
:10031800940200009402000094020000940200007d
:10032800940200009402000094020000940200006d
:10033800940200009402000094020000940200005d
:10034800940200009402000094020000940200004d
:10035800940200009402000094020000940200003d
:10036800940200009402000094020000940200002d
:10037800940200009402000094020000940200001d
:10038800940200009402000094020000940200000d
:1003980094020000940200009402000094020000fd
:1003a80094020000940200009402000094020000ed
:1003b80094020000940200009402000094020000dd
:1003c80094020000940200009402000094020000cd
:1003d80094020000940200009402000094020000bd
:1003e80094020000940200009402000094020000ad
:0803f8009402000094020000d1
:020000040000fa
:1005ac00576900006c6c0000207400006865000046
:1005bc002063000069720000636c0000652000007d
:1005cc0062650000207500006e620000726f000012
:1005dc006b6500006e200000627900002061000055
:1005ec006e64000020620000792c00002062000084
:1005fc0079200000616e0000642000006279000028
:08060c003f0a0000000000009d
:020000040000fa
:100614000200fa00000f78001e0278004622dd0076
:10062400050020000401be0000202100a1072000d5
:10063400beff07000002be00040278008448880060
:1006440001e3a90001a3a8000183a9000143a800b4
:100654000103a90000e3a90000c3a80000a3a900a6
:100664000083a9000043a9000023a8000023a800d8
:100674000203a9000223a9000ae3a8000aa3a80010
:100684005518800004fe2f0004826200c400b300e9
:100694005418880005e1a90005a1a80004c1a90017
:1006a400240880000440a1000450a000240888000d
:1006b4000421a9000002eb0004088800844880009b
:1006c4001408880005e1a80001e3a8000002eb007b
:1006d400040078000080fa00000006000000fa0020
:1006e40021e2a9002342a90021a2a9002182a90094
:1006f4002162a800041180000480a1000490a100dc
:100704000411880020e2a90020c2a90020a2a900a7
:100714002082a9002062a900041180000410a10015
:100724000420a100041188002002a90023e2a900ea
:1007340023a2a90023c2a9002362a90094012000d6
:10074400441188009580a800f5368000f40f2c0031
:10075400848262000430200004827200f43688002f
:1007640021e2a8002342a8000002eb000400780064
:100774000080fa00000006000000fa00e4ee2f00fa
:100784000e02420074b79f007eb2970004bf9f0020
:100794007eb2970014bf9f007eb2970024bf9f00d3
:1007a4000410200034bf9f001400200044bf9f00a9
:1007b4000002eb00040078000080fa00000006004c
:1007c4000a00fa004007980024002000140798004b
:1007d4000002eb00040f78009e0290003eba9700de
:1007e400848f5200020036000082eb002b00370099
:1007f4009e0290003eba9700848f520026003e006d
:100804004e02900094427800454798001eba970023
:1008140034079800140037009eba97001e0278002f
:100824004e0390000402430014427800844a780086
:100834001eba97000402e80014bf9f003eba970056
:100844000402e90034bf9f009eba97007eb297006d
:100854000410b000848f5200020036007eb297006c
:1008640014bf9f001e0fe8004e429000e04f52005c
:10087400e9ff3a004eba9700e10f520004003a0033
:100884003e029000144278000402fb002411880008
:100894000002eb000100370000003700040078007c
:1008a4000080fa00000006002c00fa0040179800af
:1008b400511798006702470005022000050f420007
:1008c4009e0278000042eb00844a78004e129000a9
:1008d400de12900014079800250798004e1290002d
:1008e400de129000a2002000030020000400be00dd
:1008f4001dff07000002be0044179800551798001a
:100904001e029000044378004e12900004427800c6
:100914006a22b900040278000442780004425300b9
:10092400644798001e0fe9006e4290000443b00033
:100934009e027800844a78004e129000de129000e5
:10094400e00f5200e08f5a00e0ff3a0067024700d0
:10095400cf10b00045ef2f008f824200e6ee2f004b
:100964000603470085000900b61a7800c510b100d7
:100974000400780092ff0700cf10b1000002eb00e2
:10098400040078000080fa00000006000800fa0065
:100994002007980031079800143a800004c0a10091
:1009a40004d0a00004e0a100143a880042e7a800a3
:1009b40042c7a80045e7a900243a800004c0a1006a
:1009c40004d0a10004e0a100243a88004567a800ef
:1009d4000002eb00040f7800642d2800140798002f
:1009e400cf10b00044ef2f000f02420045802000da
:1009f40085000900351a7800c410b1005eff0700b5
:100a0400cf10b10035ff0700ffff3700849fbe0001
:100a1400861f78003400f80004002000a401880038
:100a24000000fa0074488000e10f520032003200e6
:100a34008580a90034488000144278000402fb0039
:100a440024118800344880005448880045488000b8
:100a540054488000848f52000a00360044488000c5
:100a6400051020008482520024488000040378008a
:100a74005448800004025300048242006448880001
:100a84000d0037004548800054488000848f520090
:100a940007003100544880008402780044488000f4
:100aa400048252000402e80064488800020037000f
:100ab4001400200064488800344880000402e800e0
:100ac4003448880035488000244880000410b00071
:100ad400848f520002003900244880003448880082
:100ae4003548800044488000848f520002003a0058
:100af40014002000744888000080fa003400f900d3
:0c0b04004f0378004f02be0000400600c6
:020000040000fa
:100b100010090000040000000000000000080000b0
:0c0b2000100100000000000000000000b8
:00000001FF
