:020000040000fa
:080000000002040000000000f2
:020000040000fa
:10040000af8020000eff20000e01880000000000d9
:1004100000012000200288000c000700c03d2000e1
:100420000100200011000700000020000000e00093
:100430000200320000000200000000008a030200f7
:10044000000000000040da000000fe004440a90067
:10045000000020000000e000030032000000200047
:10046000a00188004440a800000006009101880017
:10047000800078000000eb0015003700e2804000ab
:1004800032a0b4009101ba00e280400032a0b40072
:100490009102ba00e280400032a0b4000002eb00fa
:1004a000472bde00f507b200602ce10004003a00a3
:1004b0000059eb008301e900fdff3e000400370016
:1004c0006128e100010032000082eb000400070017
:1004d0001101ba000200e000e8ff3a000000060047
:1004e0003159ba008301e9000c0032002159ba00e9
:1004f0008301e900080032000400e00003003a0034
:10050000e280400032a0b400f5ff370011d9ba00f4
:100510008301e900faff3a008100e800e180400031
:1005200032a0b400000006000040da000000fe0027
:10053000839f68000100e00002003d0060001000a1
:10054000e08018000300e00002003d00600111009f
:10055000e0811900050007004f00e00002003b00a9
:1005600060001000e0801800000006006022b80063
:10057000060220000000d0008180d2000482d20058
:100580008582d2000000a0000202520083825a003d
:10059000030031000202420083824a000000a100f1
:0c05a0000603e900f3ff3a00000006002b
:020000040000fa
:0200000401f009
:04000c007aff000077
:020000040000fa
:0200000401f009
:04001000feff0000ef
:020000040000fa
:0200000401f009
:040014007fff00006a
:020000040000fa
:100008009402000094020000940200009402000090
:100018009402000094020000940200009402000080
:100028009402000094020000940200009402000070
:100038009402000094020000940200009402000060
:100048009402000094020000940200009402000050
:10005800b003000094020000940200009402000023
:100068009402000094020000940200009402000030
:100078009402000094020000940200009402000020
:100088009402000094020000940200009402000010
:100098009402000094020000940200009402000000
:1000a80094020000940200009402000094020000f0
:1000b80094020000940200009402000094020000e0
:1000c80094020000940200009402000094020000d0
:1000d80094020000940200009402000094020000c0
:1000e80094020000940200009402000094020000b0
:1000f80094020000940200009402000094020000a0
:10010800940200009402000094020000940200008f
:10011800940200009402000094020000940200007f
:10012800940200009402000094020000940200006f
:10013800940200009402000094020000940200005f
:10014800940200009402000094020000940200004f
:10015800940200009402000094020000940200003f
:10016800940200009402000094020000940200002f
:10017800940200009402000094020000940200001f
:10018800940200009402000094020000940200000f
:1001980094020000940200009402000094020000ff
:1001a80094020000940200009402000094020000ef
:1001b80094020000940200009402000094020000df
:1001c80094020000940200009402000094020000cf
:1001d80094020000940200009402000094020000bf
:1001e80094020000940200009402000094020000af
:0801f8009402000094020000d3
:020000040000fa
:10020800940200009402000094020000940200008e
:10021800940200009402000094020000940200007e
:10022800940200009402000094020000940200006e
:10023800940200009402000094020000940200005e
:10024800940200009402000094020000940200004e
:10025800b003000094020000940200009402000021
:10026800940200009402000094020000940200002e
:10027800940200009402000094020000940200001e
:10028800940200009402000094020000940200000e
:1002980094020000940200009402000094020000fe
:1002a80094020000940200009402000094020000ee
:1002b80094020000940200009402000094020000de
:1002c80094020000940200009402000094020000ce
:1002d80094020000940200009402000094020000be
:1002e80094020000940200009402000094020000ae
:1002f800940200009402000094020000940200009e
:10030800940200009402000094020000940200008d
:10031800940200009402000094020000940200007d
:10032800940200009402000094020000940200006d
:10033800940200009402000094020000940200005d
:10034800940200009402000094020000940200004d
:10035800940200009402000094020000940200003d
:10036800940200009402000094020000940200002d
:10037800940200009402000094020000940200001d
:10038800940200009402000094020000940200000d
:1003980094020000940200009402000094020000fd
:1003a80094020000940200009402000094020000ed
:1003b80094020000940200009402000094020000dd
:1003c80094020000940200009402000094020000cd
:1003d80094020000940200009402000094020000bd
:1003e80094020000940200009402000094020000ad
:0803f8009402000094020000d1
:020000040000fa
:1005ac000200fa00000f78001e0278004622dd00df
:1005bc00050020000401be0000202100a10720003e
:1005cc00d8ff07000002be00040278000440880037
:1005dc0001e3a90001a3a8000183a9000143a8001d
:1005ec000103a90000e3a90000c3a80000a3a9000f
:1005fc000083a9000043a9000023a8000023a80041
:10060c000203a9000223a9000ae3a8000aa3a80078
:10061c005518800004fe2f0004826200c400b30051
:10062c005418880005e1a90005a1a80004c1a9007f
:10063c00240880000440a1000450a0002408880075
:10064c000421a9000002eb0004088800044080008b
:10065c001408880005e1a80001e3a8000002eb00e3
:10066c00040078000080fa00000006000000fa0088
:10067c0021e2a9002342a90021a2a9002182a900fc
:10068c002162a800041180000480a1000490a10044
:10069c000411880020e2a90020c2a90020a2a90010
:1006ac002082a9002062a900041180000410a1007e
:1006bc000420a100041188002002a90023e2a90053
:1006cc0023a2a90023c2a9002362a900940120003f
:1006dc00441188009580a800f5368000f40f2c009a
:1006ec00848262000430200004827200f436880098
:1006fc0021e2a8002342a8000002eb0004007800cd
:10070c000080fa00000006000400fa00000f7800d8
:10071c0011079800143a800004c0a10004d0a00076
:10072c0004e0a100143a880042e7a80042c7a800e0
:10073c0045e7a900243a800004c0a10004d0a10020
:10074c0004e0a100243a88004567a800c7ff070011
:10075c00ffff3700849fbe003400f8000400200027
:10076c00a40188000200fa000002eb00040f7800dc
:10077c008580a9000002eb00040f7800010037000f
:10078c001e0fe800743e20009e027800848f5200f9
:10079c00fbff340024062000241188000080fa009e
:0c07ac003400f9004f02be0000400600bf
:020000040000fa
:1007b8000008000004000000000000000408000019
:1007c800040000000000000008080000020000000b
:0c07d80002000000000000000000000013
:00000001FF
