:100000001AC034C033C032C031C030C02FC02EC07F
:100010002DC02CC02BC02AC029C028C027C026C094
:1000200025C03CC041C046C04BC050C055C05AC09E
:100030005FC067C06CC011241FBECFE5D2E0DEBF39
:10004000CDBF11E0A0E6B0E0EEECF0E102C005901B
:100050000D92A836B107D9F711E0A8E6B1E001C0CA
:100060001D92A537B107E1F75BD02FC8C9CF81B189
:1000700081B986B1866886B983B183B987B3876051
:1000800087BB8AB38E6F8ABB0895E82FF0E0EA3011
:10009000F10508F044C0EF5EFF4F09946623C9F1F3
:1000A0006130E9F5C29A0895662321F16130B9F50E
:1000B000DF9A08956623F1F0613089F5DE9A08959C
:1000C0006623C1F0613059F5DD9A0895662391F0F9
:1000D000613029F5DC9A0895662361F06130F9F406
:1000E000DB9A0895662331F06130C9F4DA9A0895F5
:1000F000662319F48BB31BBA0895613081F4D99A41
:100100000895662331F0613051F4C19A0895662351
:1001100019F488B318BA0895613009F4C19A0895A2
:10012000EF92FF920F931F93CF93DF93A0DF369A46
:100130003699FECF64B16093740185B180937301E9
:10014000D82F80E0C82F70E06C2B7D2B70936E0150
:1001500060936D0180E090E025D520E030E040E440
:1001600050E4D6D220E030EC4FE754E4C6D3262F3B
:10017000372F482F592F20936F01309370014093F0
:1001800071015093720120E030E040E05FE395D2CE
:100190002AE037ED43E25CE3B0D3609369017093EA
:1001A0006A0180936B0190936C011092680107C003
:1001B00060E06BDF809168018F5F809368018091C0
:1001C00068018A30A8F36091690170916A01809199
:1001D0006B0190916C0120E030E040E751ECB7D426
:1001E00018161CF089E061E050DFE0906901F090A2
:1001F0006A0100916B0110916C01C801B70120E008
:1002000030E040E251ECA3D4181664F0C801B70105
:1002100020E030E040E751EC19D418161CF488E0D7
:1002200061E033DFE0906901F0906A0100916B01B9
:1002300010916C01C801B70120E030E040EA50ECB9
:1002400086D4181664F0C801B70120E030E040E21F
:1002500051ECFCD318161CF487E061E016DFE09047
:100260006901F0906A0100916B0110916C01C80165
:10027000B70120E030E0A9016AD4181664F0C80183
:10028000B70120E030E040EA50ECE0D318161CF44F
:1002900086E061E0FADEE0906901F0906A01009189
:1002A0006B0110916C01C801B70120E030E040EA19
:1002B00050E44DD418165CF0C801B70120E030E0DE
:1002C000A901C4D318161CF485E061E0DEDEE090DD
:1002D0006901F0906A0100916B0110916C01C801F5
:1002E000B70120E030E040E251E431D4181664F068
:1002F000C801B70120E030E040EA50E4A7D3181667
:100300001CF484E061E0C1DEE0906901F0906A01D4
:1003100000916B0110916C01C801B70120E030E041
:1003200040E751E414D4181664F0C801B70120E086
:1003300030E040E251E48AD318161CF483E061E017
:10034000A4DEE0906901F0906A0100916B011091C8
:100350006C01C801B70120E030E040EA51E4F7D376
:10036000181664F0C801B70120E030E040E751E41E
:100370006DD318161CF482E061E087DEE09069011D
:10038000F0906A0100916B0110916C01C801B701F6
:1003900020E030E048EC51E4AFD387FF0CC0C80147
:1003A000B70120E030E040EA51E450D318161CF4C5
:1003B00081E061E06ADE6091690170916A0180917B
:1003C0006B0190916C0120E030E048EC51E469D37E
:1003D00087FDADCE80E061E058DEA9CEA0E0B0E0C0
:1003E000E3EFF1E03FC6FC01EA018081823008F4CE
:1003F00038C1DB019C91923008F430C1843059F44B
:10040000943009F02EC1918111968C911197981713
:1004100009F021C126C1943009F420C19230B1F411
:10042000823009F01EC1CA01AF0128E0DA010D9047
:10043000AD01DC010D92CD012150C1F7DB01119618
:100440008C9111979181892389830AC1823009F4A3
:1004500005C1C280D380DB0112966D907C9013970A
:1004600024813581468157811496ED90FD900D9140
:100470001C911797C601861997095C0197FF04C064
:10048000AA24BB24A81AB90AB0E2AB16B1040CF036
:1004900061C0181619066CF5370148010A2C04C012
:1004A00096948794779467940A94D2F781E090E0C9
:1004B000A0E0B0E00A2C04C0880F991FAA1FBB1F40
:1004C0000A94D2F70197A109B1098E219F21A02397
:1004D000B123EE24FF248701E3940097A105B10521
:1004E00019F4EE24FF248701E628F72808291929A2
:1004F0003CC00097D1F1CA0CDB1C39014A010A2C1F
:1005000004C096948794779467940A94D2F781E014
:1005100090E0A0E0B0E00A2C04C0880F991FAA1F49
:10052000BB1F0A94D2F70197A109B1098223932333
:10053000A423B52321E030E040E050E00097A1057E
:10054000B10519F420E030E0A9012629372948290E
:1005500059290BC06C147D0424F4EE24FF24870178
:1005600004C0630120E030E0A9018181FB01918199
:10057000891709F445C0882349F0D801C701821BB7
:10058000930BA40BB50B9C01AD0104C02E193F09C0
:10059000400B510B57FD04C01982DB82CA820BC08D
:1005A00081E08983DB82CA82509540953095219500
:1005B0003F4F4F4F5F4F2C833D834E835F830DC072
:1005C000880F991FAA1FBB1F8C839D83AE83BF8397
:1005D0008A819B8101979B838A838C819D81AE81D7
:1005E000BF819C01AD0121503040404050402F3F21
:1005F000EFEF3E07EFEF4E07EFE35E0708F30BC0A8
:100600008983DB82CA822E0D3F1D401F511F2C8320
:100610003D834E835F8383E088832C813D814E81BF
:100620005F8157FF1DC0DA01C90181709070A07011
:10063000B0705695479537952795822B932BA42B11
:10064000B52B8C839D83AE83BF838A819B8101966A
:100650009B838A8305C0E0E6F0E003C0FB0101C094
:10066000FE01CF01CDB7DEB7EEE018C5A0E2B0E0E5
:10067000EBE3F3E0FFC469837A838B839C832D8350
:100680003E834F83588789E0E82EF12CEC0EFD1E47
:10069000CE010196B70120D48E010F5E1F4FCE010F
:1006A0000596B80119D4C701B801AE01475E5F4F86
:1006B00095DE46D3A096E6E0F9C4A0E2B0E0E2E61B
:1006C000F3E0D8C469837A838B839C832D833E8334
:1006D0004F8358878E01075F1F4FCE010196B801E7
:1006E000FBD391E1E92EF12CEC0EFD1ECE01059617
:1006F000B701F2D38A8991E089278A8BC801B701B3
:10070000AE01475E5F4F6ADE1BD3A096E6E0CEC423
:10071000A0E2B0E0EDE8F3E0A1C469837A838B83C3
:100720009C832D833E834F835887CE010196BE0163
:10073000675F7F4FD1D3CE010596BE016F5E7F4FBD
:10074000CBD39985923078F089898230C0F094308B
:1007500019F4823041F4CBC0843019F4923079F42A
:10076000C6C0923051F481E02A859A89291709F48C
:1007700080E08A87CE010996BCC0823051F481E0C6
:100780002A859A89291709F480E08A8BCE0141963F
:10079000B0C06D847E848F849888ED88FE880F8930
:1007A000188DE0E2F0E080E090E0DC01AA24BB24B8
:1007B000650120E030E0A901B3016170707061153E
:1007C0007105D1F02E0D3F1D401F511F150126014F
:1007D000280E391E4A1E5B1E81E090E0A0E0B0E0CA
:1007E0002E153F054007510718F080E090E0DC012E
:1007F000820D931DA41DB51DAA0CBB1CCC1CDD1CB9
:1008000017FF09C061E0262E312C412C512CA22863
:10081000B328C428D528319749F0EE0CFF1C001FDF
:10082000111F9694879477946794C6CF6B897C89BF
:10083000EB85FC856E0F7F1F6E5F7F4F7C8F6B8F0C
:1008400061E0EA857A89E71709F460E06A8F6B8DC9
:100850007C8D10C0FC01E170F070309729F0569546
:100860004795379527955068B695A795979587959D
:100870006F5F7F4FB7FDEECF0CC0880F991FAA1F87
:10088000BB1F57FD8160220F331F441F551F61504E
:1008900070408030E0E09E07E0E0AE07E0E4BE0795
:1008A00060F36B8F7C8F6FE7E62EF12C012D112DFD
:1008B000E822F9220A231B2360E4E616F10401056D
:1008C000110561F487FD0AC0211531054105510567
:1008D00029F0805C9F4FAF4FBF4F80788D8F9E8FE8
:1008E000AF8FB8A383E0898FCE01499602C080E61E
:1008F00090E026D2A096E2E1CDC3A8E1B0E0E2E824
:10090000F4E0B4C369837A838B839C832D833E8315
:100910004F8358878E01075F1F4FCE010196B801A4
:10092000DBD281E1E82EF12CEC0EFD1ECE01059606
:10093000B701D2D29985923008F483C08989823078
:1009400008F47BC02A853A8923272A87943011F03E
:10095000923021F4981709F06CC071C0843039F4DA
:100960001D861E861F86188A1C861B866AC08230DA
:1009700019F484E0898765C08B859C852B893C8927
:10098000821B930B9C878B872D853E854F855889CD
:10099000ED88FE880F89188D2E153F0540075107F9
:1009A00038F4220F331F441F551F01979C878B87F4
:1009B0006FE170E0A12CB12CC12CA0E4DA2E80E014
:1009C00090E0DC012E153F054007510740F08A29D1
:1009D0009B29AC29BD292E193F09400B510BD694F8
:1009E000C794B794A794220F331F441F551F61501B
:1009F000704041F76FE7E62EF12C012D112DE82212
:100A0000F9220A231B2360E4E616F104010511050F
:100A100061F487FD0AC0211531054105510529F012
:100A2000805C9F4FAF4FBF4F80788D879E87AF8789
:100A3000B88B8E01075F1F4F04C0870102C000E61C
:100A400010E0C8017DD16896EAE02CC3A8E1B0E0CF
:100A5000EBE2F5E00FC369837A838B839C832D835C
:100A60003E834F8358878E01075F1F4FCE0101964B
:100A7000B80132D281E1E82EF12CEC0EFD1ECE0140
:100A80000596B70129D28985823038F0898982306C
:100A900020F0C801B70189D201C08FEF6896E6E067
:100AA00005C3A8E1B0E0E6E5F5E0E4C269837A8336
:100AB0008B839C832D833E834F8358878E01075FF2
:100AC0001F4FCE010196B80107D281E1E82EF12C2B
:100AD000EC0EFD1ECE010596B701FED18985823050
:100AE00038F08989823020F0C801B7015ED201C098
:100AF0008FEF6896E6E0DAC2A8E1B0E0E1E8F5E061
:100B0000B9C269837A838B839C832D833E834F8311
:100B100058878E01075F1F4FCE010196B801DCD1C7
:100B200081E1E82EF12CEC0EFD1ECE010596B701F9
:100B3000D3D18985823038F08989823020F0C8018C
:100B4000B70133D201C081E06896E6E0AFC2A8E108
:100B5000B0E0ECEAF5E08EC269837A838B839C83F4
:100B60002D833E834F8358878E01075F1F4FCE0131
:100B70000196B801B1D181E1E82EF12CEC0EFD1EF9
:100B8000CE010596B701A8D18985823038F08989D0
:100B9000823020F0C801B70108D201C081E0689618
:100BA000E6E084C2A8E0B0E0E7EDF5E061C27B01D9
:100BB0008C011A82611571058105910519F482E095
:100BC00089835EC083E089838EE1C82ED12CDC82CC
:100BD000CB82ED82FE820F831887C801B70156D001
:100BE000FC013197F7FF3AC0AA27BB27AE1BBF0B0A
:100BF00021E030E040E050E00A2E04C0220F331F15
:100C0000441F551F0A94D2F72150304040405040B5
:100C10002E213F214023512361E070E080E090E0ED
:100C2000211531054105510519F460E070E0CB0153
:100C300004C016950795F794E794AA95D2F7E62A8B
:100C4000F72A082B192BED82FE820F8318878EE17D
:100C500090E08E1B9F0B9C838B8312C0309781F09A
:100C60000E2E04C0EE0CFF1C001F111F0A94D2F7B9
:100C7000ED82FE820F831887CE1ADF0ADC82CB82D8
:100C8000CE0101965DD02896E8E00EC2AF92BF92E9
:100C9000CF92DF92EF92FF920F931F937B018C0113
:100CA00080E0E81680E0F80681E0080780E0180799
:100CB00058F4EFEFEE16F1040105110509F090F478
:100CC00080E090E0DC0117C0F0E0EF16F0E0FF06F6
:100CD000F0E00F07F1E01F0750F480E190E0A0E0A2
:100CE000B0E009C088E090E0A0E0B0E004C088E196
:100CF00090E0A0E0B0E020E230E040E050E0281BCF
:100D0000390B4A0B5B0B5701680104C0D694C7949A
:100D1000B794A7948A95D2F7D601C50188599F4FF9
:100D2000FC018081281B310941095109C9011F912A
:100D30000F91FF90EF90DF90CF90BF90AF9008950C
:100D4000EF92FF920F931F93CF93DF93FC012481C7
:100D500035814681578161818081823020F44061F4
:100D6000EFEFF0E0A3C0843009F49BC0823009F4B7
:100D700092C0211531054105510509F48FC002804B
:100D8000F381E02D7FEFE238F7070CF05AC0C2E89C
:100D9000DFEFCE1BDF0BCA31D1056CF579018A017B
:100DA0000C2E04C016950795F794E7940A94D2F791
:100DB00081E090E0A0E0B0E00C2E04C0880F991F05
:100DC000AA1FBB1F0A94D2F70197A109B109822378
:100DD0009323A423B52321E030E040E050E00097C6
:100DE000A105B10519F420E030E0A9012E293F2921
:100DF000402B512B03C020E030E0A901DA01C901EA
:100E00008F779070A070B07080349105A105B10506
:100E100039F427FF09C0205C3F4F4F4F5F4F04C09C
:100E2000215C3F4F4F4F5F4FE1E0F0E0203080E02A
:100E3000380780E0480780E4580728F5E0E0F0E054
:100E400022C0E038F1056CF5E158FF4FDA01C90125
:100E50008F779070A070B07080349105A105B105B6
:100E600039F427FF09C0205C3F4F4F4F5F4F04C04C
:100E7000215C3F4F4F4F5F4F57FF05C05695479539
:100E800037952795319687E056954795379527955D
:100E90008A95D1F70BC0E0E0F0E005C0E0E0F0E0BB
:100EA00005C0EFEFF0E020E030E0A9018E2F87953C
:100EB00088278795942F9F77679566276795E6958E
:100EC000A92FA82BFE2FF62B622F732F8A2F9F2F6F
:100ED000CDB7DEB7E6E0EAC0DC01FB012C9111964C
:100EE0003C91119712968C911297482F4F7750E0B2
:100EF000982F991F9927991F13966C911397862FF6
:100F0000880F892B90E0661F6627661F6183009714
:100F100039F5211531054105510511F482E029C04B
:100F200082E89FEF9383828367E0220F331F441F81
:100F3000551F6A95D1F783E0808309C0220F331FC4
:100F4000441F551F828193810197938382832030B0
:100F500080E0380780E0480780E4580778F320C035
:100F60008F3F910579F4211531054105510519F49B
:100F700084E08083089544FF03C081E0808310C033
:100F800010820EC08F5790409383828383E08083CA
:100F900087E0220F331F441F551F8A95D1F75064F5
:100FA00024833583468357830895FC01DB019081B8
:100FB000923008F449C08C91823008F445C09430D6
:100FC00051F461818430B1F511962C91119730E084
:100FD000261B310941C0843021F0923041F4823027
:100FE000B1F111968C9111978823A1F12DC06181E7
:100FF000823001F111968C9111976817D9F42281F2
:10100000338112968D919C9113978217930794F0D8
:1010100028173907BCF02481358146815781149601
:101020008D919D910D90BC91A02D82179307A407DF
:10103000B50718F4662341F00DC0281739074A0791
:101040005B0728F4662331F021E030E005C020E0A2
:1010500030E002C02FEF3FEFC90108952F923F9279
:101060004F925F926F927F928F929F92AF92BF92B8
:10107000CF92DF92EF92FF920F931F93CF93DF9364
:10108000CDB7DEB7CA1BDB0B0FB6F894DEBF0FBEC1
:10109000CDBF09942A88398848885F846E847D840E
:1010A0008C849B84AA84B984C884DF80EE80FD8010
:1010B0000C811B81AA81B981CE0FD11D0FB6F89486
:0E10C000DEBF0FBECDBFED010895F894FFCF47
:1010CE000000000000000000000102020303030301
:1010DE0004040404040404040505050505050505BA
:1010EE00050505050505050506060606060606069A
:1010FE000606060606060606060606060606060682
:10110E000606060606060606070707070707070769
:10111E000707070707070707070707070707070751
:10112E000707070707070707070707070707070741
:10113E000707070707070707070707070707070731
:10114E000707070707070707080808080808080819
:10115E000808080808080808080808080808080801
:10116E0008080808080808080808080808080808F1
:10117E0008080808080808080808080808080808E1
:10118E0008080808080808080808080808080808D1
:10119E0008080808080808080808080808080808C1
:1011AE0008080808080808080808080808080808B1
:1011BE0008080808080808080808080808080808A1
:0811CE000808080808080808D9
:00000001FF
